:10000000C039022005A00700EDCD0700EDCD0700A7
:10001000EDCD0700EDCD0700EDCD0700EDCD0700DC
:10002000EDCD0700EDCD0700EDCD0700EDCD0700CC
:0C003000EDCD0700EDCD070001950300A9
:10004000A9CC00008C1F000049060400030000003A
:100050000300000003000000030000000000000097
:10006000ABCC00002F210000490605000300000072
:100070000300000003000000030000000000000077
:10008000ACCC0000E71F0000490608000300000098
:100090000300000003000000030000000000000057
:1000A00009C000007B2100000504040003000000DB
:1000B0000100000003000000030000000000000039
:1000C0000AC00000C521000007040400030000006E
:1000D0000100000003000000030000000000000019
:1000E00023C00000E020000005060400030000001B
:1000F00003000000030000000300000000000000F7
:100100002BC00000B82000000E0604000300000011
:1001100003000000030000000300000000000000D6
:10012000ADC00000252300002D06040003000000E0
:1001300003000000030000000300000000000000B6
:10014000AFC000009D2200002D0604000300000047
:100150000300000003000000030000000200000094
:10016000ACC00000042300002B06040003000000C4
:100170000300000003000000030000000000000076
:10018000AEC00000342200002B0604000300000073
:100190000300000003000000030000000200000054
:1001A000A8000000282500000E060500030000003E
:1001B0000300000003000000030000000000000036
:1001C000AE00000048250000050605000300000001
:1001D0000100000003000000030000000000000018
:1001E0008C000000C125000005040500030000008C
:1001F00000000000030000000300000000000000F9
:100200008D000000DE25000007040500030000004B
:1002100000000000030000000300000000000000D8
:10022000A5C00000C32900002D0605000300000042
:1002300003000000030000000300000000000000B5
:10024000A9C000000C2900002D06050003000000D5
:100250000300000003000000030000000200000093
:10026000A4C00000AA2900002B060500030000001E
:100270000300000003000000030000000000000075
:10028000A8C00000272900002B060500030000007D
:100290000300000003000000030000000200000053
:1002A00037C00000552100000506080003000000CB
:1002B0000100000003000000030000000000000037
:1002C00035C00000572200000504080003000000AC
:1002D0000100000003000000030000000000000017
:1002E00036C000007A220000070408000300000066
:1002F00001000000030000000300000000000000F7
:10030000000000000F2200000000000000000000BC
:1003100000000000000000000000000000000000DD
:1003200071400021DB4000219D4000210941002156
:100330001541002121410021394100215141002175
:10034000DB420021074C657900F009F861796940CA
:10035000490703D50121044A8903116070BD70B5B6
:100360000249084780030021081104402D5900006C
:1003700000F019F8E1B26C290BD0042801D006284E
:1003800007D110490978C90703D12178090700D49A
:1003900002200D490A780C21114202D00B4980221B
:1003A0000A6003B0F0BDF0B583B0094908470020EA
:1003B0000849884704480178402291430170064863
:1003C00000470000C80000213301002100E200E0E6
:1003D00041160300F7630000231B030000F088F8B8
:1003E00000480047577F000000F088F800480047A9
:1003F0001B880000094B1A780824A243002800D06B
:1004000022431A70004A1047838E0000034908787F
:10041000000701D402480047704700008003002114
:100420005F7E0000044A2820904704480121416073
:100430000348044A416010474F4200000050044006
:100440000060044085420000F8B5014908470000FB
:100450000D64000070B51F4D2878C4B21E48804757
:100460002878032834D1032C32D01C488068400DF2
:10047000C2071A48014660318030002A03D01F2489
:100480000C57458802E01E240C570588002C1FD00D
:100490001348154A41690079414348101149496997
:1004A000401810494039497F90474005401569423E
:1004B00088420DDBA8420BDC0C4B996988B20246DE
:1004C000090C624309045212801880B208439861F3
:1004D00070BD0000E40200217941000028000021E5
:1004E0008003002100030021CB8100004040044034
:1004F000806B0C490007000F48717047094A0A4990
:1005000018235079CB56497EC018814201DD084638
:1005100002E00F2800DD0F20D189090909010143FC
:10052000D1817047E00200218800002110B501460A
:100530002B4B2C4800E020BF42699207FBD1294891
:10054000DA7A403000680B2A01D100F043F810BD80
:100550002022521A9040244A00BA9369434021480D
:1005600000E020BF42699207FBD488001F49401871
:10057000C3631C4840300360704710B5194800E061
:1005800020BF42699207FBD4426B174B98695040D9
:100590005A8AD40701D00124604052085A8220228E
:1005A000511A88400F4900BA4031086010BD10B59B
:1005B0000446FFF749FF0C49097C8909C80708D0A0
:1005C0000B48E10701D00B4900E00B4901620B49E0
:1005D000416210BD2022511A884000BA70470000C5
:1005E000600100210020044028000021C0210440B7
:1005F00080030021A74200217D42002159420021B1
:100600002D2D2D2D2D424547494E2043455254490D
:100610004649434154452D2D2D2D2D0D0A4D494957
:1006200042627A434341525543464873582F614FC3
:100630002F38736B5A2F334E4151727A51393537F7
:10064000482F614E5A4D416F4743437147534D34D4
:100650003942414D434D413078437A414A0D0A4277
:10066000674E5642414D54416B4E424D43495944A9
:100670007A41774D4441774D5441784D4441774D0F
:10068000444177576867504F546B354F5445794D07
:100690007A45794D7A55354E546C614D474D780DFC
:1006A0000A437A414A42674E5642415954416B5A75
:1006B0004A4D51307743775944565151494441523C
:1006C00050645778314D51307743775944565151E2
:1006D0004844415250645778314D513077437759EF
:1006E000440D0A5651514B444152305A584E304DE8
:1006F0005130774377594456515144444152305A0E
:10070000584E304D5267774667594A4B6F5A496881
:1007100076634E41516B4246676C305A584E3051A9
:1007200048526C0D0A633351775754415442676302
:1007300071686B6A4F5051494242676771686B6AD2
:100740004F50514D4242774E43414152494A3068E1
:100750005664596D507354466D5933676C56417ADF
:1007600045366452450D0A365670337245557771D9
:100770004B71664D614A577678643845737A614D9E
:1007800050365055776E346270724D6B5550526DC5
:1007900049535465385431374B385A535269386786
:1007A000756E374D416F470D0A43437147534D34C2
:1007B0003942414D43413067414D455543495143CD
:1007C0007451776E56656D776C49556F58654D5A03
:1007D000315745334A486A39584149627867326C23
:1007E0007765524A39315861560D0A566749674450
:1007F000796674362B474633753331566D546C6ABF
:10080000544D415A5A63434E5258445030654E68D5
:10081000612B674230546C4768593D0D0A2D2D2DD0
:100820002D2D454E44204345525449464943415499
:10083000452D2D2D2D2D002D2D2D2D2D424547499A
:100840004E2043455254494649434154452D2D2D90
:100850002D2D0D0A4D4949424C7A43423171414494
:10086000416745434168516F6F4474423244465773
:100870004673446C6B5679654B4C6B6B46713237E3
:100880007654414B42676771686B6A4F50515144CF
:10089000416A414E0D0A4D517377435159445651A7
:1008A000514445774A4451544169474138774D4452
:1008B00041774D4445774D5441774D4441774D46FE
:1008C0006F59447A6B354F546B784D6A4D784D6A49
:1008D0004D314F5455350D0A576A414E4D5173777E
:1008E000435159445651514445774A445154425A10
:1008F0004D424D4742797147534D34394167454721
:1009000043437147534D343941774548413049415C
:100910004247305A4142442B0D0A67384E766339BC
:100920004B4270772F6148686F696D394B72717AED
:100930004F59503571546D5A67533875784D2F653E
:100940007165414A367672536976574654326678F5
:1009500048757A58472B796676730D0A6F504E6743
:10096000424A68762F594E684D394B6A4544414F8B
:100970004D41774741315564457751464D414D4290
:1009800041663877436759494B6F5A497A6A30450F
:100990004177494453414177525149670D0A434BCE
:1009A00030302F574E71724C7A53743751747573BF
:1009B0007467624C2B6B69625842755746655942A1
:1009C0006A5535795062614845434951443861461A
:1009D000775074322F6F584C4F53613767420D0A6E
:1009E000396E7770413172736D7A434A4C76623852
:1009F0006F7578513375685862673D3D0D0A2D2D2E
:100A00002D2D2D454E4420434552544946494341DE
:100A100054452D2D2D2D2D00000800000000000054
:100A20000000080400000000FFFFFF000C110000A0
:100A30000000000000001D11000000000000000088
:100A40002E010F000000FF0000002F010000000039
:100A5000FF000000300100000000FF000000310135
:100A600000000000FF000000320100000000030051
:100A7000000033010000000003000000340100000A
:100A8000000001000000350200000000FFFF000030
:100A9000370200000000FF000000390200000000E3
:100AA000FF0000003B0200000000FFFF00003D02CD
:100AB00000000000FFFF00003E01000000000100F8
:100AC00000003F01000000000100000040010000A4
:100AD00000000700000041200000000000000000AE
:100AE000610200000000FFFF00006308000000003A
:100AF000000000006B080000000000000000730808
:100B000000000000000000007B0800000000000062
:100B1000000083020500000058020000850100006B
:100B200000001000000086020000000032000000FB
:100B3000880200000000320000008A02000000006D
:100B40000A00000000D386060000D1E70600026F0D
:100B5000EF000000AD260800016FEF000000AD2699
:100B60000800033157040000AD26080004352608AC
:100B700000042F260800006FEF0000014126080046
:100B8000013B26080001AD26080001AD2608000142
:100B9000AD26080000053F070001AD26080001ADA5
:100BA000260800016FEF000001AD26080001AD2608
:100BB00008000241260800023B26080002AD260874
:100BC0000000053F070002AD26080002AD26080020
:100BD0000279C1060002AD260800026FEF00000492
:100BE0002F26080002AD2608000341260800033B1B
:100BF000260800036FEF0000036FEF000003AD262F
:100C00000800033157040003AD26080000053F0724
:100C10000003AD26080003AD26080003AD2608003A
:100C20000441260800043B260800046FEF0000047E
:100C30006FEF0000046FEF0000046FEF0000047915
:100C4000C1060004AD260800046FEF0000042F2643
:100C5000080000053F07002A8648CE3D0403010036
:100C600000808080808080808080909090909080B4
:100C70008080808080808080808080808080808074
:100C80008018040404040404040404040404040494
:100C90000402020202020202020202040404040428
:100CA00004044343434343434141414141414141A2
:100CB0004141414141414141414141410404040418
:100CC0000404232323232323212121212121212142
:100CD0002121212121212121212121210404040478
:100CE0008000000000000000000000000000000084
:100CF00000000000000000000000000000000000F4
:100D000000000000000000000000000000000000E3
:100D100000000000000000000000000000000000D3
:100D200000000000000000000000000000000000C3
:100D300000000000000000000000000000000000B3
:100D400000000000000000000000000000000000A3
:100D50000000000000000000000000000000000093
:100D600000000FAC982F8A4291443771CFFBC0B579
:100D7000A5DBB5E95BC25639F111F159A4823F9266
:100D8000D55E1CAB98AA07D8015B8312BE853124BF
:100D9000C37D0C55745DBE72FEB1DE80A706DC9B80
:100DA00074F19BC1C1699BE48647BEEFC69DC10F2C
:100DB000CCA10C246F2CE92DAA84744ADCA9B05C68
:100DC000DA88F97652513E986DC631A8C82703B02B
:100DD000C77F59BFF30BE0C64791A7D55163CA0639
:100DE00067292914850AB72738211B2EFC6D2C4D45
:100DF000130D385354730A65BB0A6A762EC9C28133
:100E0000852C7292A1E8BFA24B661AA8708B4BC2C8
:100E1000A3516CC719E892D1240699D685350EF4F2
:100E200070A06A1016C1A419086C371E4C774827A9
:100E3000B5BCB034B30C1C394AAAD84E4FCA9C5B1F
:100E4000F36F2E68EE828F746F63A5781478C88470
:100E50000802C78CFAFFBE90EB6C50A4F7A3F9BE52
:100E6000F27871C60097B92EE5725CCB5DCAE47367
:100E7000B82F0196BA2D03945FC8E671E7705EC97A
:100E80000295BB2CE3745ACD0691BF28BE2907906A
:100E90005BCCE27559CEE077BC2B05920493BD2A5A
:100EA000E17658CF51C6E87FB4230D9A0C9BB5224A
:100EB000E97E50C7EB7C52C50E99B720B6210F983A
:100EC00053C4EA7DB2250B9C57C0EE79EF7856C12A
:100ED0000A9DB324089FB126ED7A54C355C2EC7B1A
:100EE000B027099EA2351B8C47D0FE69FF6846D10A
:100EF0001A8DA334188FA136FD6A44D345D2FC6BFA
:100F0000A037198E41D6F86FA4331D8A1C8BA532E9
:100F1000F96E40D7FB6C42D51E89A730A6311F88D9
:100F200043D4FA6DF3644ADD1681AF38AE391780C9
:100F30004BDCF26549DEF067AC3B15821483AD3AB9
:100F4000F16648DF1087A93EF5624CDB4DDAF463A9
:100F5000A83F1186AA3D13844FD8F661F7604ED999
:100F60001285AB3C0001363601010001020100018F
:100F70000301000104010606080400000C0100340E
:100F80000D01000F10040101140100FF16080000FC
:100F900020020000220100FF23010001240100FEC5
:100FA0002501000826020000280100012901000196
:100FB0002A0200002C01000F2E0200003001000167
:100FC00031010008320200FF34010007350102FF41
:100FD000360100003701000138010001390100FF2E
:100FE0003A01000F3C0200FF3E01010F3F010001EA
:100FF0004001041F41010001420100FF4301008044
:10100000440800004E0100084F01000F500100018C
:10101000510100FF5201000A5301008954010001EF
:10102000580400005C040000600400006404000038
:10103000680400006C0400007004000074040000E8
:10104000780400007C040000800100FF81010001A1
:101050008201000183010102840100012D2D2D2D4B
:101060002D424547494E2045432050524956415450
:1010700045204B45592D2D2D2D2D0D0A4D486343EF
:1010800041514545494F784F7131784C2B48763561
:101090006867365A673431705658706B6A4C546BB7
:1010A0005A78587242484A63457854554D4166749F
:1010B0006F416F4743437147534D34390D0A4177B0
:1010C00045486F555144516741455343644956580B
:1010D000574A6A3745785A6D4E344A56514D784FC3
:1010E0006E55524F6C61643678464D4B69716E7A1D
:1010F00047695672385866424C4D326A442B0D0A85
:101100006A314D4A2B4736617A4A4644305A69451E
:101110006B3376453965797647556B5976494C700E
:101120002B773D3D0D0A2D2D2D2D2D454E4420456F
:10113000432050524956415445204B45592D2D2DA1
:101140002D2D0005020000005026000003000000C5
:10115000F826000004000000A027000005000000A1
:101160001826000006000000C0260000070000004E
:10117000682700000E0000006C2600000F00000031
:101180001427000010000000BC2700002B00000006
:10119000342600002C000000DC2600002D0000009A
:1011A00084270000480000001028000049000000CB
:1011B0002C2800004A000000882600004B00000098
:1011C000302700004C000000D82700004D00000030
:1011D000A42600004E0000004C2700004F00000035
:1011E000F4270000000000000000000038C40D00DB
:1011F000C8000000810000003200050138C40D0065
:10120000C80000008100000032000F0138C40D004A
:10121000C8000000810000006400050138C40D0012
:10122000C80000008100000064000F0138C40D00F8
:10123000C8000000810000009600050138C40D00C0
:10124000C80000008100000096000F0138C40D00A6
:10125000C800000081000000C800050138C40D006E
:10126000C800000081000000C8000F0138C40D0054
:10127000C8000000810000002C01050138C40D00E9
:10128000C8000000810000002C010F01433A2F74B8
:10129000692F73696D706C656C696E6B5F63633128
:1012A0003378785F6363323678785F73646B5F3767
:1012B0005F34315F30305F31372F736F7572636524
:1012C0002F74692F74695F776973756E66616E2F0D
:1012D0006D6265645F706F72742F6D6265646E61BC
:1012E0006E6F737461636B32746972746F732F6E97
:1012F000616E6F737461636B2F6E616E6F73746177
:10130000636B2D68616C2D6D6265642D636D73690F
:10131000732D72746F732F6E735F68616C5F696E8B
:1013200069742E6300686172647761726520657804
:1013300063657074696F6E206964203D2025642C9C
:10134000207063203D203078253038782028433ABB
:101350002F74692F73696D706C656C696E6B5F6358
:1013600063313378785F6363323678785F73646BA8
:101370005F375F34315F30305F31372F6B65726EAE
:10138000656C2F746972746F73372F7061636B6152
:101390006765735C74692F73797362696F732F6605
:1013A000616D696C792F61726D2F6D332F4877698C
:1013B0002E633A313039322900257800251C080087
:1013C000BD3B07001D2A0100000000000DC60700FC
:1013D00009CB0500238D040000000000FDE207009A
:1013E00059A9040057B4010028000000D57B07006C
:1013F00055820400530C04002E000000BFF10600CB
:10140000AF6205007F4D05003C00000045D007009D
:1014100097EC050069D002007C00000015930600DF
:101420008DEF03008DB203004C000000D5060700CD
:10143000C9F30400E12D050084000000E51F07004A
:10144000F9BC0400EB3C05009C000000FFFFFFFF1F
:10145000FFFFFFFF00000000000000000000000090
:10146000000000000000000000000000000000007C
:101470000000000000000000000000001400000058
:10148000000000000000000000000101000000005A
:10149000000000000000000000000000000000004C
:1014A000000000000000000000000000000000003C
:1014B000000000000000000000000000000000002C
:1014C00000000000000000000000000000000078A4
:1014D0000008020030000A00D833000003000000BA
:1014E000E42A00001C2C000000010000D43300009E
:1014F00003000000242F000045310000040000001C
:10150000CC33000003000000642C0000F72B000027
:1015100000080000EC33000003000000522B000024
:10152000BD2C0000200000008131000009000000F7
:10153000672B00007629000000000100E433000062
:1015400003000000422900003D2B000008000000BD
:10155000000000000000000000000000000000008B
:101560000000000048776920616C72656164792031
:10157000646566696E65643A20696E74722320251D
:10158000642028433A2F74692F73696D706C656C01
:10159000696E6B5F6363313378785F63633236788B
:1015A000785F73646B5F375F34315F30305F313742
:1015B0002F6B65726E656C2F746972746F73372F41
:1015C0007061636B616765735C74692F73797362B3
:1015D000696F732F66616D696C792F61726D2F6D04
:1015E000332F4877692E633A33383529006E6F20E0
:1015F0004953522C206964203D2025642C207063BF
:10160000203D203078253038782028433A2F7469DF
:101610002F73696D706C656C696E6B5F63633133DA
:1016200078785F6363323678785F73646B5F375FB7
:1016300034315F30305F31372F6B65726E656C2FE0
:10164000746972746F73372F7061636B6167657350
:101650005C74692F73797362696F732F66616D694A
:101660006C792F61726D2F6D332F4877692E633A35
:101670003130393529006F7574206F66206D656DC6
:101680006F72793A20686561703D307825782C203A
:1016900073697A653D25752028433A2F74692F7345
:1016A000696D706C656C696E6B5F636331337878FC
:1016B0005F6363323678785F73646B5F375F3431B2
:1016C0005F30305F31372F6B65726E656C2F7469D8
:1016D00072746F73372F7061636B616765735C74CD
:1016E000692F73797362696F732F72756E74696D88
:1016F000652F4D656D6F72792E633A373829001E5C
:10170000360001000600000000000000000F00008D
:1017100000000000000000000000000000000300C6
:10172000FFFF00000403FFFF0000FFFF0F00E803BE
:101730000005401F0310000101000000FF3F0F00E3
:1017400008000E0000000000000000000300010F70
:10175000000009010000000000000000000000007F
:101760000000000000000000000000000000000079
:101770000000000000000000000000000000000069
:10178000AD00000100000000696E746E756D3A20B6
:101790002564206973206F7574206F662072616EF6
:1017A00067652028433A2F74692F73696D706C65E3
:1017B0006C696E6B5F6363313378785F6363323675
:1017C00078785F73646B5F375F34315F30305F31DF
:1017D000372F6B65726E656C2F746972746F733717
:1017E0002F7061636B616765735C74692F737973C4
:1017F00062696F732F66616D696C792F61726D2FED
:101800006D332F4877692E633A33373729007F7F4E
:101810007F7F7F7F7F7F7F7F7F7F7F7F7F7F7F7FD8
:101820007F7F7F7F7F7F7F7F7F7F7F7F7F7F7F7FC8
:101830007F7F7F7F7F7F7F7F7F3E7F7F7F3F3435CE
:10184000363738393A3B3C3D7F7F7F407F7F7F0092
:101850000102030405060708090A0B0C0D0E0F1000
:101860001112131415161718197F7F7F7F7F7F1AA7
:101870001B1C1D1E1F202122232425262728292A40
:101880002B2C2D2E2F303132337F7F7F7F7F0A002C
:101890000000000000000000201C0000000000000C
:1018A000403800000000000060240000000000003C
:1018B0008070000000000000A06C0000000000002C
:1018C000C048000000000000E054000000000000DC
:1018D00000E100000000000020FD0000000000000A
:1018E00040D900000000000060C5000000000000BA
:1018F0008091000000000000A08D000000000000AA
:10190000C0A9000000000000E0B5000000000000D9
:101910006E616E6F737461636B4E6574776F726B1B
:1019200048616E646C65723A20434F4E5F53544178
:101930005455535F474C4F42414C5F55502C204902
:10194000502025303278253032783A2530327825CB
:101950003032783A25303278253032783A253032B4
:1019600078253032783A25303278253032783A2569
:10197000303278253032783A253032782530327856
:101980003A2530327825303278006E616E6F73748C
:1019900061636B4E6574776F726B48616E646C65E2
:1019A000723A20434F4E5F5354415455535F4C4F4E
:1019B00043414C5F55502C2049502025303278252A
:1019C0003032783A25303278253032783A25303244
:1019D00078253032783A25303278253032783A25F9
:1019E000303278253032783A2530327825303278E6
:1019F0003A25303278253032783A25303278253021
:101A00003278000109610100256D0300000000002B
:101A100000000000000000005D020800850D0800C5
:101A200029D90500B91F0800832608007D26080073
:101A3000230808000000000071260800F9FD0500D9
:101A400051DD060015EC0700A5D80500311208008D
:101A5000656B0400A11C0200194F060075EC07001D
:101A6000000000009D4007004502080029530500C2
:101A7000000002000000040002000200000032002A
:101A8000040001000000020000000000000000004F
:101A9000050001000000070006000100000003002F
:101AA00007000800000000000F0001000100FF0017
:101AB00010000800000000001800080000000000EE
:101AC00022000200000000008E0000008E000100D5
:101AD0008E0002008E0003008F0000018F000002C4
:101AE0008F0000038E0001048E0000058E000804A4
:101AF0008E00000489000006500000007F000100F5
:101B00003F0004003F0002003F0001007F00020090
:101B10008E0002048E0001028E0001015931000086
:101B2000090000009B2F0000C833000001000000E6
:101B30009032000007000000422F0000512F0000EB
:101B4000020000004433000005000000783200006D
:101B5000C42E000003000000000000000000000090
:101B600000000000000000000000000070320000D3
:101B700007000000E42E0000D42E00000404000042
:101B8000570C0000080000000A2C0000522C000036
:101B900005040000C2310000080000009A2C00007B
:101BA000882C000006040000000000000000000077
:101BB000000000000000000000000000590C0800B8
:101BC00065160800EB1E0800551608009322080051
:101BD0001D2608005B6406000000000000000000F5
:101BE00000000000000000000000000000000000F5
:101BF00000000000331F0800271F0800C00300007A
:101C000080070000000F0000001E0000003C0000E4
:101C10000078000000F0000000E0010000C00300B8
:101C20000080070000000F0000001E0000003C00C4
:101C3000000078000000F0000000F0003833333579
:101C4000444331363342423132344236353132390F
:101C500043393646444539333344384437323341C7
:101C600037304141444338373344364435344137C3
:101C7000424230440074695F73797362696F735FC5
:101C800072756E74696D655F4572726F725F7261B5
:101C90006973653A207465726D696E6174696E6707
:101CA00020657865637574696F6E0A0073657128C5
:101CB0002575292044282564292052582028256488
:101CC0002C202575292C205458202825642C257576
:101CD0002920686F7028256429204C656E282564AA
:101CE00029002A2A2A2042522063616E206E6F74D6
:101CF00020666F72776172642072782D7365712827
:101D000025752920707265762825752920696E2031
:101D100077696E646F770056656869636C652069E2
:101D200073204E6F727468206F7220536F757468E1
:101D300020626F756E642C2053656E64696E672037
:101D4000726571756573742E2E2E00566568696311
:101D50006C652069732045617374206F722057652C
:101D6000737420626F756E642C2053656E64696EA7
:101D70006720726571756573742E2E2E006E616E0C
:101D80006F737461636B4E6574776F726B48616ECD
:101D9000646C65723A20434F4E5F5354415455531F
:101DA0005F444953434F4E4E454354454400FFFF63
:101DB00007380000000000000000000000012103BF
:101DC0000F008000520798E00800C81010D90020CA
:101DD00096039905050000000000000000000000C7
:101DE000043800000000000000000000000188F935
:101DF0004E90550000000000FF0710580000FC0145
:101E000000000000000000000000000000000000D2
:101E10000101020203040405FFFFFFFFFFFFFFFFB4
:101E2000FFFFFFFFFFFFFFFF010203040506070896
:101E30000102030405060708006CDC0200C2010071
:101E4000040000003E3300000D200800E9080800EF
:101E50009DDF0600E12307000000000000000000F5
:101E6000FD0D080029E50700FF08080039DD07001F
:101E700002000000F52900000D200800ED99070080
:101E8000F1DF06008B630600000000000000000088
:101E9000FD0D08004BE507001509080039DD0700B6
:101EA00003000000563300000D20080015C907008C
:101EB0000000000000000000000000000000000022
:101EC000FD0D08004BE507001509080039DD070086
:101ED0004E6F7720696E736964652074686520654C
:101EE0006C73652073746174656D656E742C2073FA
:101EF000657474696E6720746865204C45442E00D3
:101F00004C69627261727920696E666F207C204430
:101F10006174653A2025732C2054696D653A20253B
:101F2000732C2056657273696F6E3A202573006EAC
:101F3000616E6F737461636B4E6574776F726B481B
:101F4000616E646C65723A20434F4E5F5354415446
:101F500055535F434F4E4E454354494E47006E61C3
:101F60006E6F737461636B4E6574776F726B4861EB
:101F70006E646C65723A20434F4E5F535441545522
:101F8000535F474C4F42414C5F555000544C532DCA
:101F900045434448452D45434453412D57495448F2
:101FA0002D43484143484132302D504F4C59313335
:101FB00030352D534841323536006E616E6F737483
:101FC00061636B4E6574776F726B48616E646C65AC
:101FD000723A20434F4E5F5354415455535F4C4F18
:101FE00043414C5F555000544C532D4543444845A4
:101FF0002D50534B2D574954482D43484143484198
:1020000032302D504F4C59313330352D53484132F9
:10201000353600417373657274696F6E206661694D
:102020006C65642C20282573292C2066696C65203A
:1020300025732C206C696E652025640A00496E7337
:10204000696465206F662074726166666963204307
:10205000616C6C6261636B20412028437573746FFF
:102060006D205552492900FF2525080059260800F2
:1020700009A7070035EB0700ED080700FD01080080
:10208000B510060039090700651F0800EDCE0300F2
:10209000DD310000080000004F3100004F3100002A
:1020A000030000000000000000000000000000002D
:1020B0000000000000000000544C532D45434448EC
:1020C000452D45434453412D574954482D414553CF
:1020D0002D3132382D47434D2D534841323536008E
:1020E000544C532D45434448452D45434453412DBD
:1020F000574954482D4145532D3132382D434243E1
:102100002D534841323536003E3E3E2044617461D5
:1021100020496E642073726350616E4944202575B6
:102120003A206D792050616E494428257529005464
:102130004C532D50534B2D574954482D4348414340
:10214000484132302D504F4C59313330352D5348A2
:102150004132353600544C532D45434448452D50AB
:10216000534B2D574954482D4145532D3132382D6D
:102170004342432D53484132353600544C532D458C
:10218000434448452D45434453412D574954482D18
:102190004145532D3132382D4342432D53484100A0
:1021A00066657463685F6E65696768626F725F64B5
:1021B000657461696C733A204E554C4C20706F69A0
:1021C0006E74657200544C532D45434448452D456B
:1021D000434453412D574954482D4145532D3235E1
:1021E000362D4342432D534841003D3D2072782D0A
:1021F00073657128257529207072657628257529E3
:10220000206E6F7420696E2077696E646F770000AE
:1022100000000000000000000000000001000000BD
:1022200000000000000200000000000000000000AC
:1022300001000000544C532D45434448452D45436F
:102240004453412D574954482D4145532D3132387F
:102250002D43434D2D3800544C532D4543444845A0
:102260002D50534B2D574954482D4145532D313254
:10227000382D4342432D53484100544C532D454380
:102280004448452D50534B2D574954482D414553F3
:102290002D3235362D4342432D53484100544C5383
:1022A0002D45434448452D45434453412D574954FA
:1022B000482D4145532D3235362D43434D2D3800A1
:1022C0003D3D3D2072782D7365712825752920705C
:1022D0007265762825752920696E2077696E646F8E
:1022E000770052657175657374205061796C6F6108
:1022F00064207761732074686973206C6F6E673A2D
:1023000020256400544C532D45434448452D4543F6
:102310004453412D574954482D4145532D313238AE
:102320002D43434D00544C532D45434448452D45C2
:10233000434453412D574954482D4145532D32357F
:10234000362D43434D0001005CDC002040D70020C7
:10235000B01D0000F829000068230000E01D000007
:10236000FC25000000000000033800000000000011
:10237000000000008201081014000084000000002A
:102380004E9055000000000000000000000000001A
:10239000000000000000000000000000000000003D
:1023A000000000000000000002000000F5EC070043
:1023B0009587070000000000D5020800BD02080054
:1023C00019B707004F0808000200000000000000D5
:1023D000000000000000000017FC070017FC0700C9
:1023E000C3E40700650808000900000000000000C1
:1023F00000000000B55A07003542070035420700CB
:1024000045B707007B080800090000000000000035
:102410000000000000000000014307000143070026
:1024200071B7070091080800FFFFFFFF00000000E0
:1024300000000000000000003A013A010000000026
:10244000000000000000000002000000000000008A
:1024500000000000000000007FFC07007FFC070078
:102460005DDD07006D0908000200000000000000AB
:102470000000000000000000BBF207009DF2070012
:102480005BE60700AF0908004B60D2273E3CCE3B1D
:10249000F6B053CCB0061D65BC86987655BDEBB33F
:1024A000E7933AAAD835C65A96C298D84539A1F4C6
:1024B000A033EB2D817D0377F240A463E5E6BCF801
:1024C00047422CE1F2D1176BF551BF376840B6CBCC
:1024D000CE5E316B5733CE2B169E0F7C4AEBE78EC8
:1024E0009B7F1AFEE242E34F512563FCC2CAB9F357
:1024F000849E17A7ADFAE6BCFFFFFFFFFFFFFFFFBB
:1025000000000000FFFFFFFFFFFFFFFFFFFFFFFFD7
:10251000FFFFFFFF000000000000000000000000BF
:1025200001000000FFFFFFFF544C532D50534B2D73
:10253000574954482D4145532D3132382D47434D8D
:102540002D53484132353600544C532D50534B2DAA
:10255000574954482D4145532D3132382D4342437C
:102560002D534841323536002D2D2D2D2D42454716
:10257000494E2045432050524956415445204B4531
:10258000592D2D2D2D2D002D2D2D2D2D454E442039
:1025900045432050524956415445204B45592D2D15
:1025A0002D2D2D0074692E73797362696F732E6BF4
:1025B0006E6C2E5461736B2E49646C655461736B41
:1025C00000544C532D50534B2D574954482D4145E1
:1025D000532D3132382D4342432D53484100544C42
:1025E000532D50534B2D574954482D4145532D32AF
:1025F00035362D4342432D53484100010538000034
:1026000000000000000000000000000000000000CA
:102610000000000000000000050200008000000033
:102620004C3000001000000000000000100000000E
:10263000A82300002B08000080000000F4300000F8
:102640000C0000000100000010000000C823000082
:102650000201000080000000D030000000000000F7
:102660000000000010000000A82300000E0600007B
:1026700080000000403000000C000000010000005D
:1026800010000000482400004A0B000080000000F9
:1026900024310000000000000000000010000000D5
:1026A000682400004D0C000080000000E8300000AD
:1026B000000000000000000010000000682400007E
:1026C00006020000C0000000703000001000000092
:1026D0000000000010000000A82300002C080000EB
:1026E000C0000000003100000C00000001000000EC
:1026F00010000000C823000003010000C00000001B
:102700006430000000000000000000001000000025
:10271000A82300000F060000C000000034300000B5
:102720000C00000001000000100000004824000020
:102730004B0B0000C00000002F3100000000000023
:102740000000000010000000682400004E0C000093
:10275000C0000000DC3000000000000000000000AD
:1027600010000000682400000702000000010000C3
:1027700058300000100000000000000010000000B1
:10278000A82300002D08000000010000AC3000006C
:102790000C0000000100000010000000C823000031
:1027A0000401000000010000A03000000000000053
:1027B0000000000010000000A82300001006000028
:1027C00000010000943000000C0000000100000037
:1027D00010000000482400004C0B00000001000025
:1027E0003A3100000000000000000000100000006E
:1027F000682400004F0C000000010000B830000009
:10280000000000000000000010000000682400002C
:102810004807000000010000D43100000C00000057
:102820000000000001000000E8230000490A000049
:1028300000010000402C00000C000000000000001F
:10284000010000000824000000BE0208010200038D
:1028500002000103FFFFFF96FFFFFFFF0200D0070A
:10286000000000002D2D2D2D2D424547494E2043BF
:10287000455254494649434154452D2D2D2D2D0097
:102880002D2D2D2D2D424547494E2043455254496B
:102890004649434154452D2D2D2D2D002D2D2D2DF7
:1028A0002D424547494E2050524956415445204BF0
:1028B00045592D2D2D2D2D006E616E6F7374616342
:1028C0006B4E6574776F726B48616E646C65723ABB
:1028D0002025780069643A20307825782061303AE4
:1028E00020307825782061313A20307825780A0028
:1028F0000000000000000000E803000000000000ED
:10290000000000000000000000000000544C532DA7
:1029100050534B2D574954482D4145532D32353690
:102920002D43434D2D3800544C532D50534B2D57B0
:102930004954482D4145532D3132382D43434D2DB7
:10294000380069642D63652D636572746966696317
:10295000617465506F6C6963696573002D2D2D2D51
:102960002D454E442050524956415445204B45591F
:102970002D2D2D2D2D004E657473636170652043E0
:102980006572746966696361746520547970650065
:102990002D2D2D2D2D454E44204345525449464959
:1029A000434154452D2D2D2D2D00544C532D505366
:1029B0004B2D574954482D4145532D3132382D4325
:1029C000434D00544C532D50534B2D574954482DD3
:1029D0004145532D3235362D43434D002D2D2D2DA0
:1029E0002D424547494E20583530392043524C2D11
:1029F0002D2D2D2D00454300030800000000000090
:102A000000000000000196033433000000000000C5
:102A10000300170000010000633100000000000007
:102A200000000000000000000000000000000000A6
:102A300000000000000000000E0000000B0000007D
:102A40006D616C6C6F63206661696C656420696E92
:102A500020617373657274000000000000000000C4
:102A60000100000000000000E00000000100000084
:102A7000FF0000000000000080A90300FF0000002C
:102A80000000000080A90300000000000001010117
:102A90000100000101000000000000000000002D06
:102AA0002D2D2D2D454E4420583530392043524C84
:102AB0002D2D2D2D2D005061697277697365206B66
:102AC000657920657870616E73696F6E0050726F02
:102AD000632D547970653A20342C454E4352595039
:102AE0005445440069642D63652D626173696343D5
:102AF0006F6E73747261696E7473000100700050C0
:102B0000000400030060000200000005000600074A
:102B100000636C69656E742045415020656E637278
:102B2000797074696F6E0052657175657374206891
:102B30006173206265656E2073656E740043657213
:102B4000746966696361746520506F6C6963696557
:102B5000730069642D63652D7375626A65637441E2
:102B60006C744E616D650069642D6E65747363618C
:102B700070652D636572747479706500547853655F
:102B8000712825642054782825642C25642929205F
:102B9000000C5A9E00000000575003001502080068
:102BA0000101010000000000020000000000000020
:102BB00000000000FFFFFFFF00000000000108010F
:102BC000100120014001800100020004FEFFFFFF10
:102BD00000000000000000000000000005000000F0
:102BE00000000000001610160E18151C0212032417
:102BF00028600302100260457874656E6465642085
:102C00004B65792055736167650065636473612D59
:102C1000776974682D5348413232340042617369D8
:102C20006320436F6E73747261696E7473007061B8
:102C3000655F6672616D655F636F756E7465720066
:102C400043484143484132302D504F4C5931333085
:102C50003500454344534120776974682053484107
:102C60003232340069642D63652D6578744B657963
:102C70005573616765007061655F6672616D655F60
:102C8000636F756E746572004543445341207769E4
:102C90007468205348413235360065636473612D92
:102CA000776974682D5348413235360025735B4986
:102CB0004E464F5D5B252D34735D3A20005375629F
:102CC0006A65637420416C74204E616D650030311B
:102CD00032333435363738396162636465660025CE
:102CE000735B455252205D5B252D34735D3A2000A5
:102CF0003031323334353637383941424344454632
:102D000000202020202020202020202020202020E3
:102D1000200025735B444247205D5B252D34735DA5
:102D20003A20003031323334353637383961626316
:102D300064656600FF030000000000000000000062
:102D4000000000FCFF010000000000000000000087
:102D500000000001FF010000000000000000000072
:102D600000000002FF020000000000000000000060
:102D700000000001FF020000000000000000000051
:102D800000000002FF020000000000000000000040
:102D90000000001A00000000000000000000000019
:102DA00000000001FF030000000000000000000020
:102DB00000000001FF030000000000000000000010
:102DC00000000002FF0500000000000000000000FD
:102DD00000000002000000000000000000000000F1
:102DE000000000000200000000000000FFFFFFFFE5
:102DF000000000000200000000000000FFFFFFFFD5
:102E0000000000000200000000000000FFFFFFFFC4
:102E100000000000F4D20020A8BE002024BF002043
:102E2000FFFFFFFFB0100020702A000034110020C7
:102E30007C2A000001050A19010A1428010F1E3C12
:102E400002143264000102030001010300010203C5
:102E5000FF030303000000FF000101030001020360
:102E6000FF030303F0000000FFFFFF0FFFFFFF0F52
:102E700000080000600000000A0000000C000000D4
:102E80000000000000000000000000000000000042
:102E900000000000636C69656E742066696E69737A
:102EA000686564006B65795F73747267655F696EEE
:102EB000646578007365727665722066696E697301
:102EC000686564004543206B657920666F72204514
:102ED0004344480045434453412077697468205374
:102EE0004841310065636473612D776974682D53BF
:102EF000484131006B65795F73747267655F696E15
:102F000064657800417373657274206661696C65ED
:102F1000643A2000AEC00000000000000000000085
:102F20000000000069642D63652D6B657955736140
:102F3000676500576953756E496E746572666163A3
:102F4000650069642D65635075626C69634B6579D2
:102F50000047656E65726963204543206B657900A3
:102F60006B65795F73746F726167655F3030006B9A
:102F700065795F73746F726167655F3030004572A9
:102F8000726F72207261697365643A20006B6579B3
:102F900020657870616E73696F6E00727361456E43
:102FA0006372797074696F6E006D617374657220FD
:102FB0007365637265740053656E64696E67206241
:102FC00061636B3A00FF0200000000000000000097
:102FD00001FF0000FF0000000000000000010000F1
:102FE000000600005C100000000000003708000030
:102FF00000000000000000000000000000000000D1
:103000000000FFFF6820000023C900206832000094
:10301000FF000100EDC8070007000000C801000024
:10302000712208002F2007000000000069E1050060
:1030300061B404004145532D3139322D47434D00D1
:103040004145532D3132382D47434D004145532DD5
:103050003132382D434243004145532D3235362D10
:10306000434243004145532D3139322D45434200FF
:103070004145532D3139322D434243004D61792072
:1030800032312032303234007061655F6E775F69B3
:103090006E666F004145532D3235362D47434D0046
:1030A0004145532D3235362D454342004145532D80
:1030B0003235362D43434D004145532D3235362DA3
:1030C0004B5750007061655F6E775F696E666F0089
:1030D0004145532D3132382D454342004145532D52
:1030E0003139322D4B5750004145532D3132382D57
:1030F0004B5750004145532D3132382D43434D003D
:103100004145532D3139322D43434D00000000001D
:1031100000000000000000000000000000000000AF
:10312000000000004145532D3132382D4B570041EE
:1031300045532D3139322D4B57004145532D3235F2
:10314000362D4B57004B65792055736167650073C9
:103150006563703235367231002A864886F70D0174
:103160000101007365637032353672310073656337
:103170005F74696D6572004E2F532069732025645A
:10318000006086480186F842010100452F572069FA
:1031900073202564007061655F6B657973007365EA
:1031A000635F70726F740032313A31303A313800F7
:1031B0002B0601050507080400436F646520657749
:1031C00065002A8648CE3D040302002B0601050552
:1031D000070804004348414348413230002A8648EA
:1031E000CE3D030107007061655F6B657973000078
:1031F000A8D80020ACD80020FE800000000000000D
:1032000098C50020AE1D0000A0C70020AF1D000023
:1032100060C6002067200000A6A6A6A6A6A6A6A6B1
:10322000642D0000442D0000AEC00000000000002E
:103230000000000000000000000408100004081056
:103240000000050038003C01FF0000000000000005
:103250006D33000004144000F5320000051C4000EE
:10326000D23200000620400000800A00004000002A
:103270002A8648CE3D04010069642D6563444800F8
:1032800065636B65792E5100286572726F72290033
:103290002A8648CE3D02010031322F3230323400CE
:1032A0002D020800AD410700436F646520480043CC
:1032B0006F6465204400286E756C6C29001B5B30C0
:1032C0006D0A0D00436F6465204200436F64652002
:1032D00043005348413235360077735F746C730096
:1032E00074696D696E6700436F6465204700436FC2
:1032F000646520450053484132323400436F6465B1
:10330000204600436F6465204E00436F6465204192
:1033100000436F6465204F00436F6465204900439C
:103320006F6465205000000000FFFE000000009E5A
:10333000ACAC1B5B33396D001B5B33336D00454315
:10334000445341002B8104010C001B5B33316D00A1
:1033500025642E25640045435F444800312E362EF7
:1033600032001B5B39306D00551D20000053484171
:10337000310066687373004D52734800727373694D
:10338000006D61696E003938414100686561700007
:10339000A65959A6000000002200010044000100C7
:1033A000354525150C0E0811000105090001341ED4
:1033B000CF1E0800000208102F25750072706C00E7
:1033C0006D706C0067656E0052534100551D2500FD
:1033D00070687900551D0F00551D13002E256400DF
:1033E0006C656400551D200055040300551D110037
:1033F000B4DA002000000000000000000A00000015
:0C340000060000000002000006000000B2
:08340C000000000000000000B8
:10342000B0B5CDB04C904B91FFE7FFE7FFE7FFE76A
:1034300000200090FFE7009807280DD8FFE74C9880
:10344000009900EB8100806801AA42F82100FFE7A3
:10345000009801300090EEE700200090FFE7009810
:103460000F280FD8FFE7FFE74B98009950F821008D
:1034700000BA09AA42F82100FFE7FFE700980130EF
:103480000090ECE700200090FFE700980F2800F282
:10349000DB81FFE7FFE70598DDF818C0079A089B76
:1034A0004FEAB01181EAF02181EA706119448CEA97
:1034B0000203184050400844009940F66452C0F29C
:1034C000000252F82120104409AA52F821100844A1
:1034D0004A9001980299DDF80CC04FEAB00383EAE4
:1034E000703383EAB05300EA0102084300EA0C009B
:1034F0001043184449904A980499084404904A9803
:10350000499908440890FFE7FFE70498DDF814C0E4
:10351000069A079B4FEAB01181EAF02181EA7061B7
:1035200019448CEA020318405040084400990131C4
:1035300040F66452C0F2000252F82120104409AA59
:1035400052F8211008444A900198DDF808C0089A02
:103550004FEAB20383EA723383EAB25302EA00010C
:10356000104300EA0C000843184449904A98039914
:10357000084403904A98499908440790FFE7FFE7F9
:103580000398DDF810C0059A069B4FEAB01181EA56
:10359000F02181EA706119448CEA0203184050401E
:1035A00008440099023140F66452C0F2000252F819
:1035B0002120104409AA52F8211008444A90DDF84D
:1035C00004C00799089A4FEAB10383EA713383EA8A
:1035D000B15301EA0200114301EA0C010843184407
:1035E00049904A980299084402904A984999084497
:1035F0000690FFE7FFE70298DDF80CC0049A059BF0
:103600004FEAB01181EAF02181EA706119448CEA35
:1036100002031840504008440099033140F66452B8
:10362000C0F2000252F82120104409AA52F82110D9
:1036300008444A9006980799DDF820C04FEAB00385
:1036400083EA703383EAB05300EA0102084300EAD8
:103650000C001043184449904A980199084401907D
:103660004A98499908440590FFE7FFE70198DDF87B
:1036700008C0039A049B4FEAB01181EAF02181EA65
:10368000706119448CEA02031840504008440099C4
:10369000043140F66452C0F2000252F82120104476
:1036A00009AA52F8211008444A9005980699DDF8B5
:1036B0001CC04FEAB00383EA703383EAB05300EAD8
:1036C0000102084300EA0C001043184449904A984C
:1036D0000899084408904A98499908440490FFE7DB
:1036E000FFE7DDF804C00299039A089B4FEAB31084
:1036F00080EAF32080EA736010448CEA01021A40E9
:10370000514008440099053140F66452C0F200026D
:1037100052F82120104409AA52F8211008444A9076
:1037200004980599DDF818C04FEAB00383EA7033B6
:1037300083EAB05300EA0102084300EA0C00104398
:10374000184449904A980799084407904A9849991B
:1037500008440390FFE7FFE70198DDF808C0079AE7
:10376000089B4FEAB21181EAF22181EA7261614459
:1037700043401A40504008440099063140F66452D4
:10378000C0F2000252F82120104409AA52F8211078
:1037900008444A9003980499DDF814C04FEAB00336
:1037A00083EA703383EAB05300EA0102084300EA77
:1037B0000C001043184449904A9806990844069012
:1037C0004A98499908440290FFE7FFE7DDF804C0F2
:1037D0000699079A089B4FEAB11080EAF12080EA27
:1037E000716060445A4011405940084400990731C3
:1037F00040F66452C0F2000252F82120104409AA97
:1038000052F8211008444A9002980399DDF810C03C
:103810004FEAB00383EA703383EAB05300EA01024F
:10382000084300EA0C001043184449904A9805994F
:10383000084405904A98499908440190FFE7FFE73A
:1038400000980830009020E610200090FFE70098D4
:103850003F2800F29782FFE7FFE70598DDF818C0E0
:10386000079A089B4FEAB01181EAF02181EA706162
:1038700019448CEA0203184050400844009940F66D
:103880006452C0F2000252F8212000EB020E0DF14A
:10389000240C0CEB810353F8402C53F83C0C53F8E8
:1038A0001C4C53F8083C4FEA734585EAF34585EA1A
:1038B000932323444FEAF01484EAB04484EAD0000E
:1038C000184410444CF8210070444A900198029921
:1038D000039A4FEAB00383EA703383EAB05300EAF5
:1038E0000105084310402843184449904A98049918
:1038F000084404904A98499908440890FFE7FFE774
:1039000004980599069A079B4FEAB01585EAF025B9
:1039100085EA70652B445140084050401844009996
:10392000013140F66452C0F2000252F8212000EB4F
:10393000020E0DF1240C0CEB810353F8405C53F89C
:103940003C4C53F81C2C53F8083C4FEA734080EA77
:10395000F34080EA932010444FEAF41282EAB44222
:1039600082EAD402104428444CF8210070444A9062
:1039700001980299089A4FEAB20383EA723383EA04
:10398000B25302EA00051043084028431844499006
:103990004A980399084403904A9849990844079023
:1039A000FFE7FFE703980499059A069B4FEAB015D5
:1039B00085EAF02585EA70652B4451400840504067
:1039C00018440099023140F66452C0F2000252F8E5
:1039D000212000EB020E0DF1240C0CEB810353F8B7
:1039E000405C53F83C4C53F81C2C53F8083C4FEA0D
:1039F000734080EAF34080EA932010444FEAF412C7
:103A000082EAB44282EAD402104428444CF82100ED
:103A100070444A9001980799089A4FEAB10383EAE3
:103A2000713383EAB15301EA020511430840284388
:103A3000184449904A980299084402904A98499932
:103A400008440690FFE7FFE702980399049A059B54
:103A50004FEAB01585EAF02585EA70652B445140A0
:103A60000840504018440099033140F66452C0F2B7
:103A7000000252F8212000EB020E0DF1240C0CEB99
:103A8000810353F8405C53F83C4C53F81C2C53F81A
:103A9000083C4FEA734080EAF34080EA93201044E8
:103AA0004FEAF41282EAB44282EAD4021044284473
:103AB0004CF8210070444A9006980799089A4FEAFA
:103AC000B00383EA703383EAB05300EA0105084388
:103AD00010402843184449904A980199084401909D
:103AE0004A98499908440590FFE7FFE70198029931
:103AF000039A049B4FEAB01585EAF02585EA7065C4
:103B00002B4451400840504018440099043140F67D
:103B10006452C0F2000252F8212000EB020E0DF1B7
:103B2000240C0CEB810353F8405C53F83C4C53F8E5
:103B30001C2C53F8083C4FEA734080EAF34080EABB
:103B4000932010444FEAF41282EAB44282EAD4028B
:103B5000104428444CF8210070444A900598069976
:103B6000079A4FEAB00383EA703383EAB05300EA5E
:103B70000105084310402843184449904A98089981
:103B8000084408904A98499908440490FFE7FFE7E1
:103B900001980299039A089B4FEAB31585EAF32529
:103BA00085EA73652A44484018404840104400990B
:103BB000053140F66452C0F2000252F8212000EBB9
:103BC000020E0DF1240C0CEB810353F8405C53F80A
:103BD0003C4C53F81C2C53F8083C4FEA734080EAE5
:103BE000F34080EA932010444FEAF41282EAB44290
:103BF00082EAD402104428444CF8210070444A90D0
:103C000004980599069A4FEAB00383EA703383EA71
:103C1000B05300EA01050843104028431844499076
:103C20004A980799084407904A984999084403908C
:103C3000FFE7FFE701980299079A089B4FEAB21540
:103C400085EAF22585EA7265294443401A405040CE
:103C500008440099063140F66452C0F2000252F85E
:103C6000212000EB020E0DF1240C0CEB810353F824
:103C7000405C53F83C4C53F81C2C53F8083C4FEA7A
:103C8000734080EAF34080EA932010444FEAF41234
:103C900082EAB44282EAD402104428444CF821005B
:103CA00070444A9003980499059A4FEAB00383EA56
:103CB000703383EAB05300EA0105084310402843FB
:103CC000184449904A980699084406904A98499998
:103CD00008440290FFE7FFE701980699079A089BBE
:103CE0004FEAB11585EAF12585EA716528445A4005
:103CF0001140594008440099073140F66452C0F21F
:103D0000000252F8212000EB020E0DF1240C0CEB06
:103D1000810353F8405C53F83C4C53F81C2C53F887
:103D2000083C4FEA734080EAF34080EA9320104455
:103D30004FEAF41282EAB44282EAD40210442844E0
:103D40004CF8210070444A9002980399049A4FEA73
:103D5000B00383EA703383EAB05300EA01050843F5
:103D600010402843184449904A9805990844059002
:103D70004A98499908440190FFE7FFE70098083006
:103D8000009064E500200090FFE7009807280FD816
:103D9000FFE7009801A951F820104C9A02EB80002F
:103DA000826811448160FFE7009801300090ECE7E1
:103DB00000204DB0B0BD92B0119010910F920E93B3
:103DC00000200D900C90FFE711981028C0F0E682BB
:103DD000FFE71098011D109100680E99A0FB0101EA
:103DE0000B910A900A9809900B9808900D980999E0
:103DF0000844099009980D99089A531C884238BFC5
:103E00001A4608920F980068099908440990099881
:103E10000F990968089A531C884238BF1A460892BD
:103E200008980D9009980F990A1D0F920860109834
:103E3000011D109100680E99A0FB01010B910A90E1
:103E40000A9809900B9808900D98099908440990D0
:103E500009980D99089A531C884238BF1A4608924F
:103E60000F98006809990844099009980F99096802
:103E7000089A531C884238BF1A46089208980D9039
:103E800009980F990A1D0F9208601098011D109152
:103E900000680E99A0FB01010B910A900A98099005
:103EA0000B9808900D9809990844099009980D9964
:103EB000089A531C884238BF1A4608920F98006827
:103EC00009990844099009980F990968089A531CA0
:103ED000884238BF1A46089208980D9009980F99A1
:103EE0000A1D0F9208601098011D109100680E992C
:103EF000A0FB01010B910A900A9809900B98089079
:103F00000D9809990844099009980D99089A531C2D
:103F1000884238BF1A4608920F98006809990844E9
:103F2000099009980F990968089A531C884238BF6C
:103F30001A46089208980D9009980F990A1D0F9239
:103F400008601098011D109100680E99A0FB0101F6
:103F50000B910A900A9809900B9808900D9809996E
:103F60000844099009980D99089A531C884238BF53
:103F70001A4608920F980068099908440990099810
:103F80000F990968089A531C884238BF1A4608924C
:103F900008980D9009980F990A1D0F9208601098C3
:103FA000011D109100680E99A0FB01010B910A9070
:103FB0000A9809900B9808900D980999084409905F
:103FC00009980D99089A531C884238BF1A460892DE
:103FD0000F98006809990844099009980F99096891
:103FE000089A531C884238BF1A46089208980D90C8
:103FF00009980F990A1D0F9208601098011D1091E1
:1040000000680E99A0FB01010B910A900A98099093
:104010000B9808900D9809990844099009980D99F2
:10402000089A531C884238BF1A4608920F980068B5
:1040300009990844099009980F990968089A531C2E
:10404000884238BF1A46089208980D9009980F992F
:104050000A1D0F9208601098011D109100680E99BA
:10406000A0FB01010B910A900A9809900B98089007
:104070000D9809990844099009980D99089A531CBC
:10408000884238BF1A4608920F9800680999084478
:10409000099009980F990968089A531C884238BFFB
:1040A0001A46089208980D9009980F990A1D0F92C8
:1040B00008601098011D109100680E99A0FB010185
:1040C0000B910A900A9809900B9808900D980999FD
:1040D0000844099009980D99089A531C884238BFE2
:1040E0001A4608920F98006809990844099009989F
:1040F0000F990968089A531C884238BF1A460892DB
:1041000008980D9009980F990A1D0F920860109851
:10411000011D109100680E99A0FB01010B910A90FE
:104120000A9809900B9808900D98099908440990ED
:1041300009980D99089A531C884238BF1A4608926C
:104140000F98006809990844099009980F9909681F
:10415000089A531C884238BF1A46089208980D9056
:1041600009980F990A1D0F9208601098011D10916F
:1041700000680E99A0FB01010B910A900A98099022
:104180000B9808900D9809990844099009980D9981
:10419000089A531C884238BF1A4608920F98006844
:1041A00009990844099009980F990968089A531CBD
:1041B000884238BF1A46089208980D9009980F99BE
:1041C0000A1D0F9208601098011D109100680E9949
:1041D000A0FB01010B910A900A9809900B98089096
:1041E0000D9809990844099009980D99089A531C4B
:1041F000884238BF1A4608920F9800680999084407
:10420000099009980F990968089A531C884238BF89
:104210001A46089208980D9009980F990A1D0F9256
:1042200008601098011D109100680E99A0FB010113
:104230000B910A900A9809900B9808900D9809998B
:104240000844099009980D99089A531C884238BF70
:104250001A4608920F98006809990844099009982D
:104260000F990968089A531C884238BF1A46089269
:1042700008980D9009980F990A1D0F9208601098E0
:10428000011D109100680E99A0FB01010B910A908D
:104290000A9809900B9808900D980999084409907C
:1042A00009980D99089A531C884238BF1A460892FB
:1042B0000F98006809990844099009980F990968AE
:1042C000089A531C884238BF1A46089208980D90E5
:1042D00009980F990A1D0F9208601098011D1091FE
:1042E00000680E99A0FB01010B910A900A980990B1
:1042F0000B9808900D9809990844099009980D9910
:10430000089A531C884238BF1A4608920F980068D2
:1043100009990844099009980F990968089A531C4B
:10432000884238BF1A46089208980D9009980F994C
:104330000A1D0F9208601098011D109100680E99D7
:10434000A0FB01010B910A900A9809900B98089024
:104350000D9809990844099009980D99089A531CD9
:10436000884238BF1A4608920F9800680999084495
:10437000099009980F990968089A531C884238BF18
:104380001A46089208980D9009980F990A1D0F92E5
:104390000860FFE711981038119015E5FFE71198B4
:1043A0000828C0F07681FFE71098011D1091006881
:1043B0000E99A0FB010107910690069805900798B9
:1043C00004900D9805990844059005980D99049A54
:1043D000531C884238BF1A4604920F98006805990A
:1043E0000844059005980F990968049A531C88425F
:1043F00038BF1A46049204980D9005980F990A1D2B
:104400000F9208601098011D109100680E99A0FB92
:1044100001010791069006980590079804900D9861
:1044200005990844059005980D99049A531C8842F3
:1044300038BF1A4604920F98006805990844059001
:1044400005980F990968049A531C884238BF1A4688
:10445000049204980D9005980F990A1D0F92086018
:104460001098011D109100680E99A0FB01010791A1
:10447000069006980590079804900D9805990844B1
:10448000059005980D99049A531C884238BF1A4626
:1044900004920F98006805990844059005980F99B3
:1044A0000968049A531C884238BF1A46049204983B
:1044B0000D9005980F990A1D0F9208601098011D24
:1044C000109100680E99A0FB0101079106900698D3
:1044D0000590079804900D98059908440590059853
:1044E0000D99049A531C884238BF1A4604920F98BB
:1044F000006805990844059005980F990968049A81
:10450000531C884238BF1A46049204980D900598AF
:104510000F990A1D0F9208601098011D10910068F4
:104520000E99A0FB01010791069006980590079847
:1045300004900D9805990844059005980D99049AE2
:10454000531C884238BF1A4604920F980068059998
:104550000844059005980F990968049A531C8842ED
:1045600038BF1A46049204980D9005980F990A1DB9
:104570000F9208601098011D109100680E99A0FB21
:1045800001010791069006980590079804900D98F0
:1045900005990844059005980D99049A531C884282
:1045A00038BF1A4604920F98006805990844059090
:1045B00005980F990968049A531C884238BF1A4617
:1045C000049204980D9005980F990A1D0F920860A7
:1045D0001098011D109100680E99A0FB0101079130
:1045E000069006980590079804900D980599084440
:1045F000059005980D99049A531C884238BF1A46B5
:1046000004920F98006805990844059005980F9941
:104610000968049A531C884238BF1A4604920498C9
:104620000D9005980F990A1D0F9208601098011DB2
:10463000109100680E99A0FB010107910690069861
:104640000590079804900D980599084405900598E1
:104650000D99049A531C884238BF1A4604920F9849
:10466000006805990844059005980F990968049A0F
:10467000531C884238BF1A46049204980D9005983E
:104680000F990A1D0F920860FFE7119808381190E2
:1046900085E6FFE7119898B3FFE71098011D109188
:1046A00000680E99A0FB010103910290029801900D
:1046B000039800900D9801990844019001980D9974
:1046C000009A531C884238BF1A4600920F9800681F
:1046D00001990844019001980F990968009A531CA8
:1046E000884238BF1A46009200980D9001980F99A1
:1046F0000A1D0F920860FFE7119801381190C9E771
:104700000C9801300C90FFE70D980F990A6810443F
:1047100008600F9800680D990022884238BF012276
:104720000D920F9804300F90FFE70D980028EBD101
:10473000FFE712B0704710B59AB0189000200890AB
:104740000390FFE7FFE71898052133F038FC179036
:1047500028B1FFE7FFE7FFE7179819908DE3189856
:10476000006E0B90FFE7FFE7FFE7FFE70B9800788D
:10477000162808D0FFE7FFE7FFE748F20070CFF602
:10478000FF70199079E3FFE7FFE7FFE7FFE718986D
:104790000068B0F87800C0F340020B98431C05A8ED
:1047A00004A97AF0E4FD0598022808DCFFE7FFE79A
:1047B000FFE748F20070CFF6FF7019905DE318989C
:1047C000406E008840BA10901098B0F5805F08D90C
:1047D000FFE7FFE7FFE748F20070CFF6FF701990A0
:1047E0004BE3189C20467DF0B8FD1099014420460B
:1047F00033F0E5FB179028B1FFE7FFE7FFE71798D5
:1048000019903AE318980021C1671898C06E0B9070
:10481000FFE7FFE71898816BD1F8B4310B99109A34
:104820009847109C18987DF07FFD844208D2FFE7DE
:10483000FFE7FFE748F20070CFF6FF7019901CE326
:10484000FFE7FFE70B980078012808D0FFE7FFE7B4
:10485000FFE748F20070CFF6FF7019900DE3FFE715
:10486000FFE70B98407860B9FFE7109C18987DF03F
:104870005BFD0B99498809BA00EB1140844208D0CE
:10488000FFE7FFE7FFE748F20070CFF6FF701990EF
:10489000F3E218987DF048FD0B9908440B901898A6
:1048A0007DF042FD1099081A10901098252808D81C
:1048B000FFE7FFE7FFE748F20070CFF6FF701990BF
:1048C000DBE2FFE7FFE7189901F1080051F80C2B34
:1048D000B2F87820C2F340020B9B7AF048FD18989A
:1048E0008168806BC0F854121898C168806BC0F85A
:1048F000581218980168806891F87610884208DB91
:10490000FFE718980168C06891F8771088420DDABF
:10491000FFE7FFE7FFE718980221462258F00EFB59
:1049200049F28010CFF6FF701990A6E2189801683E
:10493000806891F8741088420BDDFFE718980168D1
:1049400091F8741081601898016891F87510C16031
:104950000EE018980168C06891F87510884206DD6D
:10496000FFE71898016891F87510C160FFE7FFE74D
:10497000FFE7FFE71898806B00F5E6700B990231AE
:1049800020227DF0A5FE0B9890F822000E900E9844
:10499000202806D8FFE70E982430109988420DD9B8
:1049A000FFE7FFE7FFE718980221322258F0C6FA26
:1049B00048F20070CFF6FF7019905EE2FFE7FFE764
:1049C0000E981899496B08611898406B0021016393
:1049D000C162816241620162C16181614161189875
:1049E000426B02F114000B99233112697DF070FEC5
:1049F0000E98233013900B981399405A40BA0F9099
:104A00000F9802280DD3FFE70F981399084403303D
:104A10001099884205D8FFE79DF83C00C00768B1AF
:104A2000FFE7FFE7FFE718980221322258F086FAE5
:104A300048F20070CFF6FF7019901EE2FFE7FFE723
:104A400013980F990844023012900B981299405C09
:104A50000D900D9860B1FFE70D98102808D8FFE77A
:104A60000D98129908440130109988420DD9FFE73A
:104A7000FFE7FFE718980221322258F05FFA48F268
:104A80000070CFF6FF701990F7E1FFE7FFE7189885
:104A9000406B0021C16012980D99084401301190BB
:104AA00010981199884235D9FFE710981199023171
:104AB00088420DD2FFE7FFE7FFE718980221322274
:104AC00058F03CFA48F20070CFF6FF701990D4E12C
:104AD0000B981199405A40BA0C900C9820B1FFE7FE
:104AE0000C98042808D3FFE7109811990C9A1144E8
:104AF000023188420DD0FFE7FFE7FFE71898022157
:104B0000322258F01BFA48F20070CFF6FF7019906D
:104B1000B3E102E000200C90FFE70B9811990844E4
:104B200002300990FFE7FFE7FFE70C98002800F04C
:104B3000BB80FFE70C9803280DD8FFE7FFE7FFE7EE
:104B400018980221322258F0F9F948F20070CFF695
:104B5000FF70199091E10998008840BA0290099875
:104B6000408840BA0190019804300C9988420DD9D0
:104B7000FFE7FFE7FFE718980221322258F0DEF93D
:104B800048F20070CFF6FF70199076E10298012884
:104B900058D0FFE70A282DD0FFE70B283AD0FFE7CF
:104BA0000D2815D0FFE74FF6017188425AD1FFE773
:104BB000FFE7FFE7189809990431019A6EF000F8B1
:104BC0001790179818B1FFE71798199055E14CE026
:104BD000FFE7FFE7189809990431019A3EF085FF35
:104BE0001790179818B1FFE71798199045E1012021
:104BF00003903AE0FFE7FFE7189809990431019A1A
:104C000031F06FFC1790179818B1FFE717981990BB
:104C100033E12AE0FFE7FFE71898806BD0F85C12D9
:104C200041F00101C0F85C12189809990431019A09
:104C300055F096FD1790179818B1FFE7179819903F
:104C40001BE112E0FFE7FFE7189809990431019A88
:104C50006BF0A4FC1790179818B1FFE717981990FC
:104C60000BE102E0FFE7FFE7FFE701980C99081A64
:104C700004380C90019809990844043009900C9864
:104C800088B1FFE70C9803280DD8FFE7FFE7FFE79F
:104C900018980221322258F051F948F20070CFF6EC
:104CA000FF701990E9E040E70398A8B9FFE70420F6
:104CB0008DF8030018989DF8031067F001FF20B1EC
:104CC000FFE700208DF80300FFE71898806B9DF840
:104CD00003107AF01BFEFFE7002015900B98139944
:104CE000084402300A90FFE715980F99884218D2BD
:104CF000FFE70A98007860B9FFE70A984078FF2834
:104D000007D1FFE7FFE7FFE718980121C0F8C010BF
:104D100008E0FFE71598023015900A9802300A90D3
:104D2000E2E7FFE71898D0F8C00001280ED0FFE7AF
:104D300018980068B0F87800C0F30110022805D177
:104D4000FFE7FFE7FFE701200890FFE70898012849
:104D50000BD1FFE718980221282258F0EFF848F20B
:104D60000070CFF6FF70199087E000201690189918
:104D70000A68C96852F82110079106901590FFE75C
:104D80000798159950F82100002842D0FFE700202D
:104D900014900B981399084402300A90FFE7149876
:104DA0000F99884230D2FFE70A9800780799159A40
:104DB00001EB82014978884209D1FFE70A984078DF
:104DC0000799159A11F82210884201D0FFE714E0E4
:104DD0000120169018980799159A51F8221006AAE2
:104DE0003AF05AFE179018B1FFE71798199044E06F
:104DF000069808B1FFE729E0FFE714980230149005
:104E00000A9802300A90CAE7FFE71598013015901A
:104E1000B6E7169868B1FFE7FFE7FFE718980221A9
:104E2000282258F08BF849F28060CFF6FF70199075
:104E300023E0FFE7FFE718980221282258F07EF8C8
:104E400048F68040CFF6FF70199016E0FFE7FFE7C5
:104E50000798159950F821001899496B88600698B1
:104E60001899896BC1F8C4011898416801314160F3
:104E7000FFE7FFE700201990FFE719981AB010BD6F
:104E800080B58CB0DDF838C00A900991089207937C
:104E9000ADF81AC000208DF819008DF81800099897
:104EA0000799BDF81A20002360F0EEFEADF8160059
:104EB0000798007800F00F000899087008980078AB
:104EC000E0B3FFE708980078082804DCFFE70898BB
:104ED000006920B1FFE7FF208DF82F004CE309980F
:104EE00000680799BDF81A20089B1B7863F0CCF97D
:104EF0008DF815009DF9150020B1FFE7FF208DF812
:104F00002F0039E30A9809990968089A127873F012
:104F1000C5FE089908610898006920B9FFE7FF20DD
:104F20008DF82F0028E309980799BDF81A20089BEF
:104F30001B7860F0A9FEADF81600FFE7FFE7BDF8AB
:104F40001610002039B1FFE7099800680078FF3893
:104F500018BF0120FFE7C007002800F00983FFE722
:104F600009980068007800F00F00ADF81200099869
:104F7000006800780009ADF8100009980799BDF89D
:104F80001A20012360F080FEADF816000999079AF7
:104F9000BDF81A300DF11600009004A838F0CAFCD4
:104FA0008DF80F009DF90F0020B1FFE7FF208DF86D
:104FB0002F00E1E2BDF810009DF8191004AA68F076
:104FC000C5FB20B1FFE7FF208DF82F00D4E209993F
:104FD000079ABDF81A300DF1160000900DF112007D
:104FE00038F0A8FC8DF80F009DF90F0020B1FFE705
:104FF000FF208DF82F00BFE29DF810008DF81900FA
:10500000BDF810000338392800F22A80DFE800F0EC
:105010001D1D281D1D1D28282828281D1D281D2868
:10502000281D28281D2828281D1D2828282828282C
:105030001D282828282828282828282828282828FB
:105040002828282828282828281D0A98089960F048
:10505000E6FD20B9FFE7FF208DF82F008CE2FFE787
:10506000BDF81600BDF81210884204DAFFE7FF20F1
:105070008DF82F0080E2BDF810000338392800F2C7
:105080005B82DFE810F0C5009A0059029801280100
:10509000FB00590259026D013A0059025000B0015B
:1050A0005902040259025902400159025902D4011D
:1050B000590259025902EC013A02590259025902A5
:1050C0005902590259026200590259025902590201
:1050D00059025902590259025902590259025902F8
:1050E00059025902590259025902590259025902E8
:1050F00059025902590259021C02BDF81200022835
:1051000005DCFFE708984068013020B1FFE7FF2089
:105110008DF82F0030E209989DF8121073F0FFF817
:10512000089948600CE2BDF81200052804DBFFE78F
:10513000FF208DF82F001FE209989DF8121073F0E0
:10514000EEF80899C9690861FAE1BDF8120040F269
:105150000A4188420ADCFFE7BDF81200012805DB9E
:10516000FFE70898C069C06A20B1FFE7FF208DF80B
:105170002F0001E2BDF812000899C96948800A9819
:1051800009990968BDF8122073F088FD0899C9696A
:10519000C8620898C069C06A20B9FFE7FF208DF88F
:1051A0002F00E9E109980799BDF81A20BDF81230DF
:1051B00060F06AFDADF81600C2E10898C069006BA6
:1051C00020B1FFE7FF208DF82F00D5E10A9809995B
:1051D000BDF81620089BD3F81CC00CF13003BDF8B5
:1051E00012E0CDF808E04FF0040ECDF804E0CDF861
:1051F00000C019F05AFC8DF818009DF91800B0F1A4
:10520000FF3F04DCFFE7FF208DF82F00B4E197E1BA
:10521000BDF81200FF280ADCFFE7BDF812000128E4
:1052200005DBFFE70898C069406B20B1FFE7FF206E
:105230008DF82F00A0E1BDF812000899C969888097
:105240000A9809990968BDF8122073F027FD08999A
:10525000C96948630898C069406B20B9FFE7FF201F
:105260008DF82F0088E109980799BDF81A20BDF83C
:10527000123060F009FDADF8160061E10898C069D0
:10528000806B20B1FFE7FF208DF82F0074E10A98B2
:105290000999BDF81620089BD3F81CC00CF13803FF
:1052A0000CF1060CBDF812E0CDF808E04FF0080E46
:1052B000CDF804E0CDF800C019F0F7FB8DF8180028
:1052C0009DF91800B0F1FF3F04DCFFE7FF208DF8E7
:1052D0002F0051E134E1BDF81200022806DCFFE79F
:1052E0000898C069C069013020B1FFE7FF208DF840
:1052F0002F0041E109989DF8121073F010F80899F9
:10530000C969C8611CE10898C069C06B20B1FFE79A
:10531000FF208DF82F002FE10A980999BDF816207B
:10532000089BD3F81CC00CF13C030CF1080CBDF831
:1053300012E0CDF808E04FF0140ECDF804E0CDF8FF
:1053400000C019F0B2FB8DF818009DF91800B0F1FB
:10535000FF3F04DCFFE7FF208DF82F000CE1EFE0BA
:105360000898406920B1FFE7FF208DF82F0003E186
:105370000A980999BDF81620DDF820C00CF1140335
:105380000CF10A0CBDF812E0CDF808E04FF00B0E5E
:10539000CDF804E0CDF800C019F087FB8DF81800B7
:1053A0009DF91800B0F1FF3F04DCFFE7FF208DF806
:1053B0002F00E1E0C4E0BDF81200022806DCFFE7A0
:1053C0000898C069006A013020B1FFE7FF208DF81E
:1053D0002F00D1E009989DF8121072F0A0FF0899F3
:1053E000C9690862ACE00A980999BDF81620089BC3
:1053F000D3F81CC00CF140030CF10A0CBDF812E00C
:10540000CDF808E04FF00F0ECDF804E0CDF800C065
:1054100019F04BFB8DF818009DF91800B0F1FF3F13
:1054200004DCFFE7FF208DF82F00A5E088E0BDF841
:105430001200032806DCFFE70898C069806A013083
:1054400020B1FFE7FF208DF82F0095E009989DF827
:10545000121072F064FF0899C969886270E0BDF8A3
:105460001200032806DCFFE70898C069406A013093
:1054700020B1FFE7FF208DF82F007DE009989DF80F
:10548000121072F04CFF0899C969486258E0BDF8E3
:105490001200022806DCFFE70898C069C0680130E6
:1054A00020B1FFE7FF208DF82F0065E009989DF8F7
:1054B000121072F034FF0899C969C86040E0BDF865
:1054C0001200042806DCFFE70898C0694078C0078E
:1054D00020B1FFE7FF208DF82F004DE00898C0694C
:1054E000417841F00101417009989DF8121072F065
:1054F00016FF0899C969486122E0BDF81200042826
:1055000007DCFFE70898C06940784008C00720B171
:10551000FFE7FF208DF82F002EE00898C069417842
:1055200041F00201417009989DF8121072F0F7FEE7
:105530000899C969886103E0FF208DF82F001BE0FE
:10554000099800680799401ABDF81A10884204DDCE
:10555000FFE7FF208DF82F000EE009980799BDF8AE
:105560001A20002360F090FBADF81600FFF7E7BCAF
:1055700000208DF82F00FFE79DF92F000CB080BDB3
:1055800010B59EB01C901C98B0F8401008448830AC
:105590001B901C98B0F84210B0F84000081AADF803
:1055A0006A0000208DF85F001C98406B18901898D6
:1055B00060B1FFE7BDF86A00282807DBFFE71B980A
:1055C00000780621B1EB101F01D0FFE708E31C981B
:1055D00090F87500800600280DD5FFE71C98B0F8FC
:1055E0004600ADF85C001C9890F8751001F0DF01E2
:1055F00080F8751006E00020ADF85C001C9981F879
:105600007500FFE71B9801784078090141EA101006
:105610001C9981F878001B9804301B901B9876F039
:10562000BDF8ADF85A001B9802301B901B98411C26
:105630001B911990199800781C9981F873001C9897
:10564000002180F874101B98411C1B9100781C9954
:1056500081F872001C9800F11C0111A814227DF041
:1056600037F81C9800F108010CA814227DF030F8DE
:105670001C981B990A684B688C68C968C0F8291087
:10568000C0F82540C0F82130C0F81D201C984FF00C
:10569000040C80F81CC01B9810301B901C981B9A9F
:1056A000136854689168D268C0F81520C0F81110CA
:1056B000C0F80D40C0F809301C9880F808C01B984D
:1056C00010301B901C98407FFF281DD0FFE71C98CE
:1056D00090F84C004008C007B8B1FFE71C980930AB
:1056E00042F69451C0F20001102279F04FF858B1FF
:1056F000FFE71C981D3042F69451C0F200011022C1
:1057000079F044F808B9FFE76AE21C98407AFF286C
:1057100007D1FFE71C98807A000708B9FFE75FE22E
:105720000FE01C98B0F876004009C00738B9FFE7D1
:105730001C98B0F876000009C00708B1FFE74FE2F7
:10574000FFE71C98B0F876008008C00750B1FFE76B
:105750001C980930189953F07AFC022801D0FFE711
:105760003EE2FFE7BDF85A0028301C99B1F842200C
:10577000B1F84010511A88420ADDFFE71C981899C9
:1057800004220092042200231AF0D0F91D9030E286
:10579000BDF85A0028301C99B1F84220B1F84010E9
:1057A000511A88420ADAFFE71C98B0F84010BDF899
:1057B0005A2011442831A0F84210FFE719980078C8
:1057C000002844D1FFE70020ADF82E00BDF85A00B4
:1057D00050B9FFE71C981899042200920422002374
:1057E0001AF0A4F91D9004E21C9818991B9ABDF8B0
:1057F0005AC0B0F840400444141BA4F1880EBDF810
:105800005C3000249E45B8BF012411AB02930DF11A
:105810002E030193CDF800C0039400231AF08AFAF6
:105820001C90BDF82E0018B9FFE71C981D90E0E110
:105830001B981990BDF82E001B9908441B90BDF8C9
:105840002E00BDF85A10081AADF85A00FFE71C9850
:10585000B0F876008009C00708B3FFE700208DF894
:105860002D001898D0F8A4411C990DF12D0200923A
:105870000CAA11ABA0471C901C9828B1FFE79DF81B
:105880002D00C00718B1FFE71C981D90B1E11C98CE
:1058900090F87600C0F380108DF85F00FFE719984C
:1058A00000783A280ED1FFE7BDF85A00042809DB3A
:1058B000FFE71B980078872804D1FFE701208DF8C7
:1058C0005F00FFE71C9890F875000007002811D5CD
:1058D000FFE7BDF85C0068B9FFE71C9800210022D3
:1058E00018F0D9FF28B9FFE71C9862F017F91D904E
:1058F0007FE1FFE79DF85F100120C90721B9FFE7AD
:105900001C985CF06BFFFFE700F001008DF82C00A5
:105910001C98093076F05CFB10B3FFE71C981D3033
:1059200076F056FBE0B1FFE71C98D0F80910D0F8EC
:105930000D20D0F81130D0F815000A900993089284
:10594000079109980A99069105909DF8140080F036
:1059500002008DF81400189805A976F02DFEFFE7D7
:105960001C98407AFF2810D1FFE71C9818999DF8E1
:105970002C2002F001024AF064FD1C901C9818B91A
:10598000FFE700201D9034E117E09DF82C00C007D0
:1059900090B9FFE71898D0F88C0130B1FFE718985C
:1059A000D0F88C211C999047FFE71C98189911AAF0
:1059B00012F023FB1D901CE1FFE7FFE70020ADF88C
:1059C0001200BDF85A0078B9FFE7199800783B2813
:1059D0000AD0FFE71C9818990422009204220023A1
:1059E0001AF0A4F81D9004E11998007811382B28BA
:1059F00000F2A580DFE800F073A3A3A3A3A3A3A3F1
:105A0000A3A3A3A3A3A3A3A3A3A3A3A3A3A3A3A366
:105A10008CA3443BA3A3A3A3A3A3A3A3A3A3A3A334
:105A2000A387161B1C9862F079F81D90E1E01C9882
:105A300018991B9ABDF85AC0B0F840400444141B92
:105A4000A4F1880EBDF85C3000249E45B8BF012447
:105A500011AB02930DF112030193CDF800C0039432
:105A60003C231AF067F91C901B98199096E01C983B
:105A70001B99199ABDF85A3002F01DFA1D90B8E032
:105A80004FF0000C8DF811C01C9818991B9ABDF8A6
:105A90005A30B0F840400444141BA4F1880EBDF8FD
:105AA0005C40A645B8BF4FF0010C0DF11104019404
:105AB0000DF112040094CDF808C033F07AFA1C906E
:105AC0009DF81100C00738B1FFE71C98189911AA7A
:105AD00012F093FA1D908CE01B9819905EE01C98D0
:105AE00040F6B30181871C98112180F873101B9830
